{
  "_format": "hh-sol-artifact-1",
  "contractName": "PmknFarm",
  "sourceName": "contracts/PmknFarm.sol",
  "abi": [
    {
      "inputs": [
        {
          "internalType": "contract IERC20",
          "name": "_daiToken",
          "type": "address"
        },
        {
          "internalType": "contract PmknToken",
          "name": "_pmknToken",
          "type": "address"
        }
      ],
      "stateMutability": "nonpayable",
      "type": "constructor"
    },
    {
      "anonymous": false,
      "inputs": [
        {
          "indexed": true,
          "internalType": "address",
          "name": "from",
          "type": "address"
        },
        {
          "indexed": false,
          "internalType": "uint256",
          "name": "amount",
          "type": "uint256"
        }
      ],
      "name": "Stake",
      "type": "event"
    },
    {
      "anonymous": false,
      "inputs": [
        {
          "indexed": true,
          "internalType": "address",
          "name": "from",
          "type": "address"
        },
        {
          "indexed": false,
          "internalType": "uint256",
          "name": "amount",
          "type": "uint256"
        }
      ],
      "name": "Unstake",
      "type": "event"
    },
    {
      "anonymous": false,
      "inputs": [
        {
          "indexed": true,
          "internalType": "address",
          "name": "to",
          "type": "address"
        },
        {
          "indexed": false,
          "internalType": "uint256",
          "name": "amount",
          "type": "uint256"
        }
      ],
      "name": "YieldWithdraw",
      "type": "event"
    },
    {
      "inputs": [
        {
          "internalType": "address",
          "name": "user",
          "type": "address"
        }
      ],
      "name": "calculateYieldTime",
      "outputs": [
        {
          "internalType": "uint256",
          "name": "",
          "type": "uint256"
        }
      ],
      "stateMutability": "view",
      "type": "function"
    },
    {
      "inputs": [
        {
          "internalType": "address",
          "name": "user",
          "type": "address"
        }
      ],
      "name": "calculateYieldTotal",
      "outputs": [
        {
          "internalType": "uint256",
          "name": "",
          "type": "uint256"
        }
      ],
      "stateMutability": "view",
      "type": "function"
    },
    {
      "inputs": [],
      "name": "daiToken",
      "outputs": [
        {
          "internalType": "contract IERC20",
          "name": "",
          "type": "address"
        }
      ],
      "stateMutability": "view",
      "type": "function"
    },
    {
      "inputs": [
        {
          "internalType": "address",
          "name": "",
          "type": "address"
        }
      ],
      "name": "isStaking",
      "outputs": [
        {
          "internalType": "bool",
          "name": "",
          "type": "bool"
        }
      ],
      "stateMutability": "view",
      "type": "function"
    },
    {
      "inputs": [],
      "name": "name",
      "outputs": [
        {
          "internalType": "string",
          "name": "",
          "type": "string"
        }
      ],
      "stateMutability": "view",
      "type": "function"
    },
    {
      "inputs": [
        {
          "internalType": "address",
          "name": "",
          "type": "address"
        }
      ],
      "name": "pmknBalance",
      "outputs": [
        {
          "internalType": "uint256",
          "name": "",
          "type": "uint256"
        }
      ],
      "stateMutability": "view",
      "type": "function"
    },
    {
      "inputs": [],
      "name": "pmknToken",
      "outputs": [
        {
          "internalType": "contract PmknToken",
          "name": "",
          "type": "address"
        }
      ],
      "stateMutability": "view",
      "type": "function"
    },
    {
      "inputs": [
        {
          "internalType": "uint256",
          "name": "amt",
          "type": "uint256"
        }
      ],
      "name": "stake",
      "outputs": [],
      "stateMutability": "nonpayable",
      "type": "function"
    },
    {
      "inputs": [
        {
          "internalType": "address",
          "name": "",
          "type": "address"
        }
      ],
      "name": "stakingBalance",
      "outputs": [
        {
          "internalType": "uint256",
          "name": "",
          "type": "uint256"
        }
      ],
      "stateMutability": "view",
      "type": "function"
    },
    {
      "inputs": [
        {
          "internalType": "address",
          "name": "",
          "type": "address"
        }
      ],
      "name": "startTime",
      "outputs": [
        {
          "internalType": "uint256",
          "name": "",
          "type": "uint256"
        }
      ],
      "stateMutability": "view",
      "type": "function"
    },
    {
      "inputs": [
        {
          "internalType": "uint256",
          "name": "amount",
          "type": "uint256"
        }
      ],
      "name": "unstake",
      "outputs": [],
      "stateMutability": "nonpayable",
      "type": "function"
    },
    {
      "inputs": [],
      "name": "viewYieldBalance",
      "outputs": [
        {
          "internalType": "uint256",
          "name": "",
          "type": "uint256"
        }
      ],
      "stateMutability": "view",
      "type": "function"
    },
    {
      "inputs": [],
      "name": "withdrawYield",
      "outputs": [],
      "stateMutability": "nonpayable",
      "type": "function"
    }
  ],
  "bytecode": "0x60806040526040518060400160405280600881526020017f506d6b6e4661726d00000000000000000000000000000000000000000000000081525060049080519060200190620000519291906200010f565b503480156200005f57600080fd5b5060405162001952380380620019528339818101604052810190620000859190620001ed565b81600560006101000a81548173ffffffffffffffffffffffffffffffffffffffff021916908373ffffffffffffffffffffffffffffffffffffffff16021790555080600660006101000a81548173ffffffffffffffffffffffffffffffffffffffff021916908373ffffffffffffffffffffffffffffffffffffffff160217905550505062000323565b8280546200011d906200028a565b90600052602060002090601f0160209004810192826200014157600085556200018d565b82601f106200015c57805160ff19168380011785556200018d565b828001600101855582156200018d579182015b828111156200018c5782518255916020019190600101906200016f565b5b5090506200019c9190620001a0565b5090565b5b80821115620001bb576000816000905550600101620001a1565b5090565b600081519050620001d081620002ef565b92915050565b600081519050620001e78162000309565b92915050565b600080604083850312156200020157600080fd5b60006200021185828601620001bf565b92505060206200022485828601620001d6565b9150509250929050565b60006200023b826200026a565b9050919050565b60006200024f826200022e565b9050919050565b600062000263826200022e565b9050919050565b600073ffffffffffffffffffffffffffffffffffffffff82169050919050565b60006002820490506001821680620002a357607f821691505b60208210811415620002ba57620002b9620002c0565b5b50919050565b7f4e487b7100000000000000000000000000000000000000000000000000000000600052602260045260246000fd5b620002fa8162000242565b81146200030657600080fd5b50565b620003148162000256565b81146200032057600080fd5b50565b61161f80620003336000396000f3fe608060405234801561001057600080fd5b50600436106100cf5760003560e01c80636f49712b1161008c578063a694fc3a11610066578063a694fc3a1461024c578063be22f54614610268578063e0704fe314610286578063e507a8a4146102a4576100cf565b80636f49712b146101bc578063828bee59146101ec578063980d61161461021c576100cf565b806306872661146100d457806306fdde03146101045780630da2cde4146101225780632e17de781461014057806345bc78ab1461015c5780636e1dc66e1461018c575b600080fd5b6100ee60048036038101906100e99190610f6b565b6102ae565b6040516100fb919061124a565b60405180910390f35b61010c610354565b60405161011991906111c8565b60405180910390f35b61012a6103e2565b604051610137919061124a565b60405180910390f35b61015a60048036038101906101559190610fbd565b610444565b005b61017660048036038101906101719190610f6b565b6107c2565b604051610183919061124a565b60405180910390f35b6101a660048036038101906101a19190610f6b565b6107da565b6040516101b3919061124a565b60405180910390f35b6101d660048036038101906101d19190610f6b565b6107f2565b6040516101e39190611177565b60405180910390f35b61020660048036038101906102019190610f6b565b610812565b604051610213919061124a565b60405180910390f35b61023660048036038101906102319190610f6b565b61082a565b604051610243919061124a565b60405180910390f35b61026660048036038101906102619190610fbd565b610883565b005b610270610c2d565b60405161027d9190611192565b60405180910390f35b61028e610c53565b60405161029b91906111ad565b60405180910390f35b6102ac610c79565b005b600080670de0b6b3a76400006102c38461082a565b6102cd9190611308565b90506000620151809050600081836102e591906112d7565b90506000670de0b6b3a7640000826000808973ffffffffffffffffffffffffffffffffffffffff1673ffffffffffffffffffffffffffffffffffffffff1681526020019081526020016000205461033c9190611308565b61034691906112d7565b905080945050505050919050565b6004805461036190611459565b80601f016020809104026020016040519081016040528092919081815260200182805461038d90611459565b80156103da5780601f106103af576101008083540402835291602001916103da565b820191906000526020600020905b8154815290600101906020018083116103bd57829003601f168201915b505050505081565b6000806103ee336102ae565b9050600360003373ffffffffffffffffffffffffffffffffffffffff1673ffffffffffffffffffffffffffffffffffffffff168152602001908152602001600020548161043b9190611281565b90508091505090565b600180156104905750806000803373ffffffffffffffffffffffffffffffffffffffff1673ffffffffffffffffffffffffffffffffffffffff1681526020019081526020016000205410155b600160003373ffffffffffffffffffffffffffffffffffffffff1673ffffffffffffffffffffffffffffffffffffffff16815260200190815260200160002060006101000a81548160ff0219169083151502179055610524576040517f08c379a000000000000000000000000000000000000000000000000000000000815260040161051b9061122a565b60405180910390fd5b600061052f336102ae565b905042600260003373ffffffffffffffffffffffffffffffffffffffff1673ffffffffffffffffffffffffffffffffffffffff16815260200190815260200160002081905550816000803373ffffffffffffffffffffffffffffffffffffffff1673ffffffffffffffffffffffffffffffffffffffff16815260200190815260200160002060008282546105c39190611362565b92505081905550600560009054906101000a900473ffffffffffffffffffffffffffffffffffffffff1673ffffffffffffffffffffffffffffffffffffffff1663a9059cbb33846040518363ffffffff1660e01b815260040161062792919061114e565b602060405180830381600087803b15801561064157600080fd5b505af1158015610655573d6000803e3d6000fd5b505050506040513d601f19601f820116820180604052508101906106799190610f94565b5080600360003373ffffffffffffffffffffffffffffffffffffffff1673ffffffffffffffffffffffffffffffffffffffff16815260200190815260200160002060008282546106c99190611281565b9250508190555060008060003373ffffffffffffffffffffffffffffffffffffffff1673ffffffffffffffffffffffffffffffffffffffff168152602001908152602001600020541415610770576000600160003373ffffffffffffffffffffffffffffffffffffffff1673ffffffffffffffffffffffffffffffffffffffff16815260200190815260200160002060006101000a81548160ff0219169083151502179055505b3373ffffffffffffffffffffffffffffffffffffffff167f85082129d87b2fe11527cb1b3b7a520aeb5aa6913f88a3d8757fe40d1db02fdd836040516107b6919061124a565b60405180910390a25050565b60006020528060005260406000206000915090505481565b60026020528060005260406000206000915090505481565b60016020528060005260406000206000915054906101000a900460ff1681565b60036020528060005260406000206000915090505481565b600080600260008473ffffffffffffffffffffffffffffffffffffffff1673ffffffffffffffffffffffffffffffffffffffff16815260200190815260200160002054426108789190611362565b905080915050919050565b80600560009054906101000a900473ffffffffffffffffffffffffffffffffffffffff1673ffffffffffffffffffffffffffffffffffffffff166370a08231336040518263ffffffff1660e01b81526004016108df91906110fc565b60206040518083038186803b1580156108f757600080fd5b505afa15801561090b573d6000803e3d6000fd5b505050506040513d601f19601f8201168201806040525081019061092f9190610fe6565b1015801561093d5750600081115b61097c576040517f08c379a00000000000000000000000000000000000000000000000000000000081526004016109739061120a565b60405180910390fd5b60011515600160003373ffffffffffffffffffffffffffffffffffffffff1673ffffffffffffffffffffffffffffffffffffffff16815260200190815260200160002060009054906101000a900460ff1615151415610a3a5760006109e0336102ae565b905080600360003373ffffffffffffffffffffffffffffffffffffffff1673ffffffffffffffffffffffffffffffffffffffff1681526020019081526020016000206000828254610a319190611281565b92505081905550505b600560009054906101000a900473ffffffffffffffffffffffffffffffffffffffff1673ffffffffffffffffffffffffffffffffffffffff166323b872dd3330846040518463ffffffff1660e01b8152600401610a9993929190611117565b602060405180830381600087803b158015610ab357600080fd5b505af1158015610ac7573d6000803e3d6000fd5b505050506040513d601f19601f82011682018060405250810190610aeb9190610f94565b50806000803373ffffffffffffffffffffffffffffffffffffffff1673ffffffffffffffffffffffffffffffffffffffff1681526020019081526020016000206000828254610b3a9190611281565b9250508190555042600260003373ffffffffffffffffffffffffffffffffffffffff1673ffffffffffffffffffffffffffffffffffffffff1681526020019081526020016000208190555060018060003373ffffffffffffffffffffffffffffffffffffffff1673ffffffffffffffffffffffffffffffffffffffff16815260200190815260200160002060006101000a81548160ff0219169083151502179055503373ffffffffffffffffffffffffffffffffffffffff167febedb8b3c678666e7f36970bc8f57abf6d8fa2e828c0da91ea5b75bf68ed101a82604051610c22919061124a565b60405180910390a250565b600560009054906101000a900473ffffffffffffffffffffffffffffffffffffffff1681565b600660009054906101000a900473ffffffffffffffffffffffffffffffffffffffff1681565b6000610c84336102ae565b90506000811180610cd457506000600360003373ffffffffffffffffffffffffffffffffffffffff1673ffffffffffffffffffffffffffffffffffffffff16815260200190815260200160002054115b610d13576040517f08c379a0000000000000000000000000000000000000000000000000000000008152600401610d0a906111ea565b60405180910390fd5b6000600360003373ffffffffffffffffffffffffffffffffffffffff1673ffffffffffffffffffffffffffffffffffffffff1681526020019081526020016000205414610df3576000600360003373ffffffffffffffffffffffffffffffffffffffff1673ffffffffffffffffffffffffffffffffffffffff1681526020019081526020016000205490506000600360003373ffffffffffffffffffffffffffffffffffffffff1673ffffffffffffffffffffffffffffffffffffffff168152602001908152602001600020819055508082610def9190611281565b9150505b42600260003373ffffffffffffffffffffffffffffffffffffffff1673ffffffffffffffffffffffffffffffffffffffff16815260200190815260200160002081905550600660009054906101000a900473ffffffffffffffffffffffffffffffffffffffff1673ffffffffffffffffffffffffffffffffffffffff166340c10f1933836040518363ffffffff1660e01b8152600401610e9492919061114e565b600060405180830381600087803b158015610eae57600080fd5b505af1158015610ec2573d6000803e3d6000fd5b505050503373ffffffffffffffffffffffffffffffffffffffff167f92044e3943309ee5950e21bc7421d02c1df75f0df33c0d97c1143687b49a4c5782604051610f0c919061124a565b60405180910390a250565b600081359050610f26816115a4565b92915050565b600081519050610f3b816115bb565b92915050565b600081359050610f50816115d2565b92915050565b600081519050610f65816115d2565b92915050565b600060208284031215610f7d57600080fd5b6000610f8b84828501610f17565b91505092915050565b600060208284031215610fa657600080fd5b6000610fb484828501610f2c565b91505092915050565b600060208284031215610fcf57600080fd5b6000610fdd84828501610f41565b91505092915050565b600060208284031215610ff857600080fd5b600061100684828501610f56565b91505092915050565b61101881611396565b82525050565b611027816113a8565b82525050565b611036816113de565b82525050565b61104581611402565b82525050565b600061105682611265565b6110608185611270565b9350611070818560208601611426565b61107981611518565b840191505092915050565b6000611091601383611270565b915061109c82611529565b602082019050919050565b60006110b4601883611270565b91506110bf82611552565b602082019050919050565b60006110d7601283611270565b91506110e28261157b565b602082019050919050565b6110f6816113d4565b82525050565b6000602082019050611111600083018461100f565b92915050565b600060608201905061112c600083018661100f565b611139602083018561100f565b61114660408301846110ed565b949350505050565b6000604082019050611163600083018561100f565b61117060208301846110ed565b9392505050565b600060208201905061118c600083018461101e565b92915050565b60006020820190506111a7600083018461102d565b92915050565b60006020820190506111c2600083018461103c565b92915050565b600060208201905081810360008301526111e2818461104b565b905092915050565b6000602082019050818103600083015261120381611084565b9050919050565b60006020820190508181036000830152611223816110a7565b9050919050565b60006020820190508181036000830152611243816110ca565b9050919050565b600060208201905061125f60008301846110ed565b92915050565b600081519050919050565b600082825260208201905092915050565b600061128c826113d4565b9150611297836113d4565b9250827fffffffffffffffffffffffffffffffffffffffffffffffffffffffffffffffff038211156112cc576112cb61148b565b5b828201905092915050565b60006112e2826113d4565b91506112ed836113d4565b9250826112fd576112fc6114ba565b5b828204905092915050565b6000611313826113d4565b915061131e836113d4565b9250817fffffffffffffffffffffffffffffffffffffffffffffffffffffffffffffffff04831182151516156113575761135661148b565b5b828202905092915050565b600061136d826113d4565b9150611378836113d4565b92508282101561138b5761138a61148b565b5b828203905092915050565b60006113a1826113b4565b9050919050565b60008115159050919050565b600073ffffffffffffffffffffffffffffffffffffffff82169050919050565b6000819050919050565b60006113e9826113f0565b9050919050565b60006113fb826113b4565b9050919050565b600061140d82611414565b9050919050565b600061141f826113b4565b9050919050565b60005b83811015611444578082015181840152602081019050611429565b83811115611453576000848401525b50505050565b6000600282049050600182168061147157607f821691505b60208210811415611485576114846114e9565b5b50919050565b7f4e487b7100000000000000000000000000000000000000000000000000000000600052601160045260246000fd5b7f4e487b7100000000000000000000000000000000000000000000000000000000600052601260045260246000fd5b7f4e487b7100000000000000000000000000000000000000000000000000000000600052602260045260246000fd5b6000601f19601f8301169050919050565b7f4e6f7468696e6720746f20776974686472617700000000000000000000000000600082015250565b7f43616e6e6f74207374616b65207a65726f20746f6b656e730000000000000000600082015250565b7f4e6f7468696e6720746f20756e7374616b650000000000000000000000000000600082015250565b6115ad81611396565b81146115b857600080fd5b50565b6115c4816113a8565b81146115cf57600080fd5b50565b6115db816113d4565b81146115e657600080fd5b5056fea26469706673582212206ad856a36fde08ea7d7f44d753ba4256e68016246b69b665fd6fa6caf588597564736f6c63430008040033",
  "linkReferences": {},
  "deployedLinkReferences": {}
}